{
  "contractName": "Marketplace",
  "abi": [
    {
      "anonymous": false,
      "inputs": [
        {
          "indexed": false,
          "internalType": "uint256",
          "name": "id",
          "type": "uint256"
        },
        {
          "indexed": false,
          "internalType": "string",
          "name": "name",
          "type": "string"
        },
        {
          "indexed": false,
          "internalType": "uint256",
          "name": "price",
          "type": "uint256"
        },
        {
          "indexed": false,
          "internalType": "uint256",
          "name": "quantity",
          "type": "uint256"
        }
      ],
      "name": "ItemAdded",
      "type": "event"
    },
    {
      "anonymous": false,
      "inputs": [
        {
          "indexed": false,
          "internalType": "uint256",
          "name": "id",
          "type": "uint256"
        },
        {
          "indexed": false,
          "internalType": "address",
          "name": "buyer",
          "type": "address"
        },
        {
          "indexed": false,
          "internalType": "uint256",
          "name": "quantity",
          "type": "uint256"
        }
      ],
      "name": "ItemPurchased",
      "type": "event"
    },
    {
      "inputs": [],
      "name": "itemCount",
      "outputs": [
        {
          "internalType": "uint256",
          "name": "",
          "type": "uint256"
        }
      ],
      "stateMutability": "view",
      "type": "function"
    },
    {
      "inputs": [
        {
          "internalType": "uint256",
          "name": "",
          "type": "uint256"
        }
      ],
      "name": "items",
      "outputs": [
        {
          "internalType": "uint256",
          "name": "id",
          "type": "uint256"
        },
        {
          "internalType": "address",
          "name": "owner",
          "type": "address"
        },
        {
          "internalType": "string",
          "name": "name",
          "type": "string"
        },
        {
          "internalType": "string",
          "name": "description",
          "type": "string"
        },
        {
          "internalType": "uint256",
          "name": "price",
          "type": "uint256"
        },
        {
          "internalType": "uint256",
          "name": "quantity",
          "type": "uint256"
        }
      ],
      "stateMutability": "view",
      "type": "function"
    },
    {
      "inputs": [
        {
          "internalType": "string",
          "name": "_name",
          "type": "string"
        },
        {
          "internalType": "string",
          "name": "_description",
          "type": "string"
        },
        {
          "internalType": "uint256",
          "name": "_price",
          "type": "uint256"
        },
        {
          "internalType": "uint256",
          "name": "_quantity",
          "type": "uint256"
        }
      ],
      "name": "addItem",
      "outputs": [],
      "stateMutability": "nonpayable",
      "type": "function"
    },
    {
      "inputs": [
        {
          "internalType": "uint256",
          "name": "_id",
          "type": "uint256"
        },
        {
          "internalType": "uint256",
          "name": "_quantity",
          "type": "uint256"
        }
      ],
      "name": "purchaseItem",
      "outputs": [],
      "stateMutability": "payable",
      "type": "function"
    },
    {
      "inputs": [
        {
          "internalType": "uint256",
          "name": "_id",
          "type": "uint256"
        }
      ],
      "name": "removeItem",
      "outputs": [],
      "stateMutability": "nonpayable",
      "type": "function"
    }
  ],
  "bytecode": "0x60806040525f8055348015610012575f80fd5b506109bb806100205f395ff3fe608060405260043610610049575f3560e01c80636bfb0d011461004d5780637132917114610074578063bfb231d214610095578063dc8cbd2c146100c6578063e0675698146100e5575b5f80fd5b348015610058575f80fd5b506100615f5481565b6040519081526020015b60405180910390f35b34801561007f575f80fd5b5061009361008e3660046105e5565b6100f8565b005b3480156100a0575f80fd5b506100b46100af3660046105e5565b6101b6565b60405161006b9695949392919061063f565b3480156100d1575f80fd5b506100936100e036600461072d565b610301565b6100936100f336600461079c565b610400565b5f81815260016020819052604090912001546001600160a01b031633146101665760405162461bcd60e51b815260206004820152601a60248201527f4f6e6c79206974656d206f776e65722063616e2072656d6f766500000000000060448201526064015b60405180910390fd5b5f818152600160208190526040822082815590810180546001600160a01b0319169055906101976002830182610593565b6101a4600383015f610593565b505f6004820181905560059091015550565b600160208190525f91825260409091208054918101546002820180546001600160a01b0390921692916101e8906107bc565b80601f0160208091040260200160405190810160405280929190818152602001828054610214906107bc565b801561025f5780601f106102365761010080835404028352916020019161025f565b820191905f5260205f20905b81548152906001019060200180831161024257829003601f168201915b505050505090806003018054610274906107bc565b80601f01602080910402602001604051908101604052809291908181526020018280546102a0906107bc565b80156102eb5780601f106102c2576101008083540402835291602001916102eb565b820191905f5260205f20905b8154815290600101906020018083116102ce57829003601f168201915b5050505050908060040154908060050154905086565b5f8054908061030f83610808565b90915550506040805160c0810182525f80548083523360208085019182528486018a8152606086018a90526080860189905260a086018890529284526001908190529490922083518155915193820180546001600160a01b0319166001600160a01b039095169490941790935591519091906002820190610390908261086e565b50606082015160038201906103a5908261086e565b506080820151600482015560a0909101516005909101555f546040517f665e452eb624a7f9bf54abd5d404d4f4da7360a1e40698893fe2cc447a51af9c916103f29187908690869061092a565b60405180910390a150505050565b5f828152600160205260409020821580159061041d57505f548311155b61045f5760405162461bcd60e51b81526020600482015260136024820152721a5d195b48191bd95cc81b9bdd08195e1a5cdd606a1b604482015260640161015d565b81816004015461046f9190610955565b34146104af5760405162461bcd60e51b815260206004820152600f60248201526e496e636f72726563742076616c756560881b604482015260640161015d565b81816005015410156105035760405162461bcd60e51b815260206004820152601960248201527f4e6f7420656e6f756768206974656d7320696e2073746f636b00000000000000604482015260640161015d565b60018101546040516001600160a01b039091169081903480156108fc02915f818181858888f1935050505015801561053d573d5f803e3d5ffd5b5082826005015f8282546105519190610972565b9091555050604080518581523360208201529081018490527f78a0660bbda86d17037943644187f6f1f73f2f20a3240bf4cf4a56c2a96bcf84906060016103f2565b50805461059f906107bc565b5f825580601f106105ae575050565b601f0160209004905f5260205f20908101906105ca91906105cd565b50565b5b808211156105e1575f81556001016105ce565b5090565b5f602082840312156105f5575f80fd5b5035919050565b5f81518084525f5b8181101561062057602081850181015186830182015201610604565b505f602082860101526020601f19601f83011685010191505092915050565b8681526001600160a01b038616602082015260c0604082018190525f90610668908301876105fc565b828103606084015261067a81876105fc565b6080840195909552505060a00152949350505050565b634e487b7160e01b5f52604160045260245ffd5b5f82601f8301126106b3575f80fd5b813567ffffffffffffffff808211156106ce576106ce610690565b604051601f8301601f19908116603f011681019082821181831017156106f6576106f6610690565b8160405283815286602085880101111561070e575f80fd5b836020870160208301375f602085830101528094505050505092915050565b5f805f8060808587031215610740575f80fd5b843567ffffffffffffffff80821115610757575f80fd5b610763888389016106a4565b95506020870135915080821115610778575f80fd5b50610785878288016106a4565b949794965050505060408301359260600135919050565b5f80604083850312156107ad575f80fd5b50508035926020909101359150565b600181811c908216806107d057607f821691505b6020821081036107ee57634e487b7160e01b5f52602260045260245ffd5b50919050565b634e487b7160e01b5f52601160045260245ffd5b5f60018201610819576108196107f4565b5060010190565b601f821115610869575f81815260208120601f850160051c810160208610156108465750805b601f850160051c820191505b8181101561086557828155600101610852565b5050505b505050565b815167ffffffffffffffff81111561088857610888610690565b61089c8161089684546107bc565b84610820565b602080601f8311600181146108cf575f84156108b85750858301515b5f19600386901b1c1916600185901b178555610865565b5f85815260208120601f198616915b828110156108fd578886015182559484019460019091019084016108de565b508582101561091a57878501515f19600388901b60f8161c191681555b5050505050600190811b01905550565b848152608060208201525f61094260808301866105fc565b6040830194909452506060015292915050565b808202811582820484141761096c5761096c6107f4565b92915050565b8181038181111561096c5761096c6107f456fea26469706673582212206510f06e1c9c049d8c43936a33cf74495a1f27e8bc5b1ad891bb5a751f41e50864736f6c63430008150033",
  "immutableReferences": {},
  "source": "// SPDX-License-Identifier: MIT\r\npragma solidity ^0.8.0;\r\n\r\ncontract Marketplace {\r\n    uint256 public itemCount = 0;\r\n\r\n    struct Item {\r\n        uint256 id;\r\n        address owner;\r\n        string name;\r\n        string description;\r\n        uint256 price;\r\n        uint256 quantity;\r\n    }\r\n\r\n    mapping(uint256 => Item) public items;\r\n\r\n    event ItemAdded(uint256 id, string name, uint256 price, uint256 quantity);\r\n    event ItemPurchased(uint256 id, address buyer, uint256 quantity);\r\n\r\n    function addItem(string memory _name, string memory _description, uint256 _price, uint256 _quantity) public {\r\n        itemCount++;\r\n        items[itemCount] = Item(itemCount, msg.sender, _name, _description, _price, _quantity);\r\n        emit ItemAdded(itemCount, _name, _price, _quantity);\r\n    }\r\n\r\n    function purchaseItem(uint256 _id, uint256 _quantity) public payable {\r\n        Item storage item = items[_id];\r\n        require(_id > 0 && _id <= itemCount, \"item does not exist\");\r\n        require(msg.value == item.price * _quantity, \"Incorrect value\");\r\n        require(item.quantity >= _quantity, \"Not enough items in stock\");\r\n\r\n        address payable seller = payable(item.owner); // Adresi `address payable` trne dntrme\r\n        seller.transfer(msg.value); // Para transferi\r\n        item.quantity -= _quantity;\r\n\r\n        emit ItemPurchased(_id, msg.sender, _quantity);\r\n    }\r\n\r\n    function removeItem(uint256 _id) public {\r\n        require(msg.sender == items[_id].owner, \"Only item owner can remove\");\r\n        delete items[_id];\r\n    }\r\n}\r\n",
  "sourcePath": "C:\\Users\\Trusan Acar\\Desktop\\MarketPlace\\contracts\\MarketPlace.sol",
  "compiler": {
    "name": "solc",
    "version": "0.8.21+commit.d9974bed.Emscripten.clang"
  },
  "schemaVersion": "3.4.16",
  "updatedAt": "2023-11-12T16:25:46.494Z",
  "devdoc": {
    "kind": "dev",
    "methods": {},
    "version": 1
  },
  "userdoc": {
    "kind": "user",
    "methods": {},
    "version": 1
  }
}